:020000040800F2
:10000000002000209D020008ED020008ED0200081B
:1000100000000000000000000000000000000000E0
:10002000000000000000000000000000ED020008D9
:100030000000000000000000ED020008FD080008BC
:10004000ED020008ED020008ED020008ED020008D4
:10005000ED020008ED020008ED020008ED020008C4
:10006000ED020008ED020008ED020008ED020008B4
:10007000ED020008ED02000800000000ED0200089B
:1000800000000000ED020008000000000000000079
:10009000ED02000800000000ED020008ED0200087B
:1000A000ED020008ED020008ED020008ED02000874
:1000B000ED020008ED020008ED020008ED02000864
:1000C000054B0648033310B51B1A062B03D9044B06
:1000D000002B00D0984710BD040000200400002031
:1000E000000000000648074910B5091A8910CB0F17
:1000F0005918491003D0044B002B00D0984710BD6D
:1001000004000020040000200000000010B5074C8F
:100110002378002B09D1FFF7D3FF054B002B02D02A
:10012000044800E000BF0123237010BD040000203C
:1001300000000000840F0008094B10B5002B03D00D
:100140000849094800E000BF08480368002B02D1B5
:10015000FFF7C8FF10BD064B002BF9D09847F7E713
:100160000000000008000020840F000804000020A8
:1001700000000000002243088B4274D303098B4225
:100180005FD3030A8B4244D3030B8B4228D3030C67
:100190008B420DD3FF22090212BA030C8B4202D309
:1001A0001212090265D0030B8B4219D300E0090A31
:1001B000C30B8B4201D3CB03C01A5241830B8B423A
:1001C00001D38B03C01A5241430B8B4201D34B0323
:1001D000C01A5241030B8B4201D30B03C01A524188
:1001E000C30A8B4201D3CB02C01A5241830A8B420D
:1001F00001D38B02C01A5241430A8B4201D34B02F6
:10020000C01A5241030A8B4201D30B02C01A524159
:10021000CDD2C3098B4201D3CB01C01A524183090D
:100220008B4201D38B01C01A524143098B4201D347
:100230004B01C01A524103098B4201D30B01C01A72
:100240005241C3088B4201D3CB00C01A52418308EC
:100250008B4201D38B00C01A524143088B4201D319
:100260004B00C01A5241411A00D201465241104679
:100270007047FFE701B5002000F006F802BDC04658
:100280000029F7D076E770477047C0460023C25C6C
:100290000133002AFBD1581E704700000D488546E7
:1002A000002103E00C4B5B58435004310B480C4BCE
:1002B00042189A42F6D30B4A02E00023136004323C
:1002C000094B9A42F9D300F01BFB00F0C9FD00F086
:1002D0001BFAFEE700200020241000080000002088
:1002E000040000200400002020000020FEE70000A1
:1002F000F0B58DB0204BD96A04200143D962DA6A87
:1003000002400392039AD96A7C300143D962DA6AC7
:1003100002400292029ADA6A01252A43DA62DB6A13
:100320002B400193019BA027FF052026BE62134AA4
:100330005369F0218B4333435361114BD968114A00
:100340001140D96019680A401A6004A880239B01F3
:1003500004930571002444710223837100F04EFB65
:1003600006960795089409940A9406A9380000F0A7
:10037000ADFB0DB0F0BDC0460010024000000140D2
:1003800000080050FFFFFFF3A023DB055A6940215E
:100390008A435A615A6940318A435A615969154AF8
:1003A0000A405A615969144A0A405A6143B2002B03
:1003B00006DAA022D2055369802189000B435361DC
:1003C000430606D5A022D2055369802149000B437C
:1003D0005361830605D5A022D205516980230B43C2
:1003E0005361C30605D5A022D205516940230B43B2
:1003F00053617047FFFEFFFFFFFDFFFF70B5064C26
:10040000636920252B436361322000F00FFD63698F
:10041000AB43636170BDC0460004005010B5FFF7E8
:10042000B3FFFFF7EBFF10BD10B50400084A536996
:1004300010218B435361FFF7F1FF20090F231C406C
:1004400024012043FFF7EAFF322000F0EFFC10BD4B
:100450000004005010B50400084A516910230B43F2
:100460005361FFF7DBFF20090F231C4024012043C9
:10047000FFF7D4FF322000F0D9FC10BD000400507B
:1004800070B50500002402E0FFF7E4FF0134285DA9
:100490000028F9D170BDC04610B5394800F0C6FC3F
:1004A000A023DB051968374A0A401A601A688021C0
:1004B00049010A431A601968334A0A401A601A68E7
:1004C0008021C9010A431A601968304A0A401A603B
:1004D0001A68802149020A431A6019682C4A0A40A6
:1004E0001A601A688021C9020A431A60294B1968E8
:1004F000294A0A401A601A688021C9000A431A6012
:100500001968264A0A401A601A68802149000A437D
:100510001A60234800F08AFC3020FFF735FFFFF710
:100520006DFF204800F082FC3020FFF72DFFFFF721
:1005300065FFC82000F07AFC3020FFF725FFFFF7A9
:100540005DFFC82000F072FC2020FFF71DFFFFF7C1
:1005500055FFC82000F06AFC2820FFF765FF08203F
:10056000FFF762FF0120FFF75FFFC820C00000F027
:100570005DFC0620FFF758FF0C20FFF755FF10BD6C
:1005800040420F00FFCFFFFFFF3FFFFFFFFFFCFFD9
:10059000FFFFF3FF00040050FFF3FFFFFFFCFFFF2E
:1005A000204E00008813000070B505000C0080206C
:1005B000FFF73AFF0120FFF737FFC820C00000F027
:1005C00035FC8020FFF730FF2800FFF759FFC020DF
:1005D000FFF72AFF2000FFF753FF70BD82B0104BDA
:1005E000596B0120014359635A6B02400192019AF1
:1005F000996B80225205114399639B6B1A400092BC
:10060000009B084BDA691202120ADA61196A064A7B
:100610000A401A621A6A1202120A1A6202B070477B
:100620000010024000ED00E0FFFF00FFFEE7C046C3
:1006300010B52A4B1A6801218A431A601B681942B7
:1006400003D0C1312648FFF7F1FF264A1168264B37
:100650000B40802109010B431360244A11680123D8
:100660000B431360214B1B685B07FBD51F4B59687D
:100670001F4A0A40802149010A435A60DA68F02182
:100680008A43DA60D9681B4A0A40DA60D9681A4A94
:100690000A40DA60DA6803218A4302390A43DA60E1
:1006A000124BDB680C221340042BF9D1134C2000B1
:1006B00000F0ACFB124A116804230B4313602000C6
:1006C00000F0C8FB094AD36C0C218B43D3640D4A5C
:1006D000136A1B021B0A136210BDC04600200240B1
:1006E000C00F000800700040FFE7FFFF001002404D
:1006F000FFE0FFFFFFF8FFFFFFC7FFFF0024F4004C
:1007000010E000E000ED00E070B59AB0FFF766FF82
:10071000FFF78EFFFFF7ECFD00F020F929490023D9
:1007200000930B00082216A800F058F8FA20800168
:1007300000F06CFB244AD16A03230B43D362FFF71A
:10074000ABFE16A800F0B0F8050011AC1F4B22005C
:1007500043CB43C20A2207A9280000F0BEFB07A929
:10076000200000F0C7FB2000FFF790FD20180322B7
:10077000174900F0B6FBFA20800000F057FB16A8DE
:1007800000F092F8401BC317C01858400CAD114B35
:100790002A0042CB42C21B7813700A2202A900F041
:1007A0009CFB02A9280000F0A5FB2800FFF76EFDC6
:1007B00028180522084900F094FB29002000FFF7C3
:1007C000F3FEBEE70004005000100240D00F000806
:1007D000DC0F0008E00F0008EC0F0008F0B55746EA
:1007E0004E464546E0B408AC258801608280C024AE
:1007F0002406A4466144890A204EF46AA446FF24D4
:10080000A2462140FE3C27008F403900674639430D
:10081000F1620168894609688C46520090460321BE
:100820000A004746BA40674697433A004F463A6047
:1008300002689446126891462700424697403A0063
:100840004F4617433A0067463A6083608581C0226D
:100850001206944663449B0AF26A57463B409C400A
:100860001443F462826813686D00A9408B431360DF
:100870001CBC90469946A246F0BDC04600100240FE
:10088000826812698389012098401040431E984174
:10089000C0B2704782681269838901209840104075
:1008A00043425841C0B2704770B5040002685369B2
:1008B0008188012528008840034353610A2000F005
:1008C000B5FA22685369A1888D40AB43536120007B
:1008D000FFF7E0FF0028FAD1002503E03A2000F0FE
:1008E000A5FA01352000FFF7CBFF0028F6D102481A
:1008F00000F09CFA280070BD803801007047C046A7
:10090000104B1A68802149000A431A60D9680E4AC0
:100910000A40DA6019680D4A0A401A609A68012193
:100920008A439A6019680A4A0A401A60D968094AD3
:100930000A40DA6000221A6180221205064B9A6092
:100940007047C046001002400C40FF88F6FFF6FEDC
:10095000FFFFFBFFFFFF02FF00ED00E0F0B58FB0EF
:10096000234A916B80239B0219439163926B13403E
:100970000093009B04250195022602960327039706
:10098000002404940594069501A9A020C00500F058
:100990009DF8082301930296039704940594069505
:1009A00001A9A020C00500F091F8E1235B020793A4
:1009B000089409940A940C230B930C940D940D4CF9
:1009C00007A9200000F0C0F9A36880225201134358
:1009D000A3606268084B13406360A3682A229343B4
:1009E000A36022680123134323600FB0F0BDC0460B
:1009F0000010024000440040FFB7FFFF10B503792C
:100A0000002B50D00368002B58D04279012A0ED019
:100A1000002A02D0022A14D01DE02B4A51689943C3
:100A20005160136801680B431360012314E0264AE8
:100A3000116899431160536801680B4353600123A7
:100A40000AE0214A11680B431360536801680B43A5
:100A50005360012300E000238279002A31D0022A6A
:100A60000DD0032A15D0012A2AD1174AD16804686B
:100A7000A143D160016890680143916021E0124A6E
:100A800091680468A14391600068D1680143D16016
:100A900017E00D4A91680468214391600068D168AD
:100AA0000143D1600DE0084B1A6801688A431A605F
:100AB00001685A688A435A60012302E0012300E07A
:100AC0000023180010BDC04600040140F0B500240A
:100AD0003EE00123A340134039D006681D005D436A
:100AE0006A005219D24316404F686F433E43066076
:100AF0004E68013E012E05D8866816408F686F4308
:100B00003E438660C66832400E696E433243C2601F
:100B10004A68022A1BD1FF2B0BD8026A5D436B4344
:100B20001D01ED1AAA4315004A6953432B43036282
:100B30000DE0456A1B0A1A005A435A4353431A01EF
:100B4000D21A95432A004D696B4313434362013423
:100B50000A681300E340BCD14B68013B012B05D868
:100B6000CB684168914353430B4343600120F0BD80
:100B7000044BDB681B090F221340034AD35CD840A7
:100B80007047C04600100240A80F0008044BDA6806
:100B9000E023DB0013401B0A024AD35CD8407047B5
:100BA00000100240B80F0008044BDA68E0239B01F4
:100BB0001340DB0A024AD35CD84070470010024061
:100BC000B80F000810B50E4BDB68802252021340AC
:100BD000934201D00B4800E00B48094AD168F0234A
:100BE0009B030B409B0C0949CB5C5843D168C02345
:100BF0001B041940890D0131FFF7BCFA10BDC04636
:100C0000001002400024F40000127A009C0F00083B
:100C100010B5164BDB680C221340042B08D002D809
:100C2000002B07D014E0082B1DD00C2B0DD00FE0AB
:100C30000F4819E00D4B5A68E0231B0213405B0B71
:100C400001338020000298400EE0FFF7BBFF0BE06D
:100C5000064B5A68E0231B0213405B0B01338020D4
:100C60000002984000E0034810BDC046001002405A
:100C70000024F40000127A0010B5041E032C23D1C6
:100C8000294BDB6C034002041343284A934208D0EB
:100C9000274A93420BD0274A93420ED1FFF7B8FF61
:100CA00018E0214B1B685B0710D4002012E01E4B9C
:100CB0001B6D9B050CD400200CE0FFF7A9FFFFF78C
:100CC00057FFFFF771FF05E0002003E01A4801E03D
:100CD000802000020C2C25D1134BDB6C2340240414
:100CE0001C43164B9C4208D0154B9C420AD0154B16
:100CF0009C420CD1FFF78CFF14E00B4B1B685B0789
:100D00000CD40FE0084B1B6D9B0509D40AE0FFF7DC
:100D10007FFFFFF72DFFFFF739FF03E0064801E0F3
:100D20008020000210BDC0460010024002000300F7
:100D300003000300010003000024F40008000C007D
:100D40000C000C0004000C0070B504000D000368DA
:100D5000DB0748D40168274B19406B68EA681343E6
:100D60002A691343AA691A430B00134303604268BC
:100D7000214B1340AA681343436082681F4B134002
:100D80006A69134383601E4B984203D10320FFF727
:100D900073FF07E01B4B984203D10C20FFF76CFF59
:100DA00000E00020002820D0296800291FD0AA696F
:100DB00080231B029A420DD140004B08C018FFF758
:100DC000D9F9114B03404008072210401843E06056
:100DD00001200DE04B08C018FFF7CCF90004000C0F
:100DE000E060012004E0002002E0002000E000209C
:100DF00070BDC046F369FFEFFFCFFFFFFFFCFFFFB1
:100E00000038014000440040F0FF000010B5FA2116
:100E10008900FFF7AFF90138034B586000229A6050
:100E200005321A6010BDC04610E000E082B0084BE9
:100E30001B680193019B431C06D0013004E0044B66
:100E40001B68DB0300D501380028F8D102B07047D9
:100E500010E000E0014B18607047C0460000002021
:100E60000E4B70B500251E000D4CE41AA410A542CF
:100E700004D0AB00F35898470135F8E700F082F84A
:100E8000084B00251E00084CE41AA410A54204D00B
:100E9000AB00F35898470135F8E770BD1C10000807
:100EA0001C1000081C10000820100008931E10B52C
:100EB0000C00222B02D9002008700DE00A2A06D16E
:100EC000002804DA2D2340420B70012100E00021AC
:100ED000611800F01DF8200010BD10B5FFF7E6FF07
:100EE00010BD002310B59A4203D0CC5CC45401332A
:100EF000F9E710BD020010B51378002B01D00132C4
:100F0000FAE7CC5CD4540133002CFAD110BD0000B8
:100F1000F0B58FB0170006000C002522184904A870
:100F2000FFF7DFFF0020BB1E0500222B01D9207038
:100F300023E06B1C0293E31801933000013B39005E
:100F40000393FFF79DF904AB5B5C039A30001370C9
:100F50003900FFF70FF9061E01D0029DE9E7019B5A
:100F6000187023001A1B954206DD1A78615D19700E
:100F700062550133013DF5E720000FB0F0BDC046DA
:100F8000F40F0008F8B5C046F8BC08BC9E46704790
:0C0F9000F8B5C046F8BC08BC9E4670478F
:100F9C00030406080C1018203000000000000000AC
:100FAC00000000000102030406070809000000000D
:100FBC00010203042E2E2F5372632F6D61696E2E66
:100FCC006300000044697374616E6365203A20000D
:100FDC00636D00005370656564203A2000000000CA
:100FEC00636D2F73000000003031323334353637E7
:100FFC0038396162636465666768696A6B6C6D6ECB
:10100C006F707172737475767778797A000000005E
:04101C00390100088E
:041020000D010008B6
:0410240080841E00A6
:040000050800029D50
:00000001FF
